:020000040801F1
:1000000028C60120710601085D0201085F0201088F
:1000100063020108670201086B020108000000008A
:100020000000000000000000000000006F02010856
:100030007102010800000000730201087502010846
:100040008B0601088B0601088B0601088B06010848
:100050008B0601088B060108DD3C0108F53C010810
:100060000D3D0108313D0108573D01088B0601088F
:100070008B0601088B0601088B0601088B06010818
:100080008B0601088B0601088B0601088B06010808
:100090008B0601088B0601088B0601087D3D0108CF
:1000A000DB3B0108DD3B01088B060108D93B010859
:1000B000993A0108BD3A0108DB3A01088B060108AC
:1000C0008B0601088B0601088B0601088B060108C8
:1000D0008B060108353C01088B0601088B060108D8
:1000E000953D01088B0601088B060108FB3B0108C2
:1000F0008B060108FD3B01088B0601088B060108F1
:100100008B0601089B9501088B0601088B060108E8
:100110008B0601088B060108F93A01089D3B01088E
:100120008B0601088B0601088B0601088B06010867
:100130008B0601088B0601088B0601088B06010857
:100140008B0601088B0601088B06010835DC0108C7
:100150008B0601088B0601088B0601088B06010837
:100160008B0601088B0601088B0601088B06010827
:100170008B0601088B0601088B0601088B06010817
:100180008B0601088B06010800F002F800F047F822
:100190000AA090E8000C82448344AAF10107DA45E2
:1001A00001D100F03CF8AFF2090EBAE80F0013F0ED
:1001B000010F18BFFB1A43F0010318474C0501005B
:1001C0006C050100103A24BF78C878C1FAD85207EC
:1001D00024BF30C830C144BF04680C6070470000C1
:1001E0000023002400250026103A28BF78C1FBD840
:1001F000520728BF30C148BF0B60704764290DF01B
:10020000ED8778290EF0268073290EF0A182002058
:1002100070471FB50EF0BFFD1FBD10B510BD0EF02D
:10022000FBFA1146FFF7F5FF00F00CF80EF019FB92
:1002300003B4FFF7F2FF03BC02F06EFE62B6704734
:1002400072B6704700F020F903E0024902480CF052
:1002500036FBFAE794B9012018BA0120704700BFB5
:10026000FEE700BFFEE700BFFEE700BFFEE7704706
:1002700070477047704700000CB500200190009057
:100280007548006840F480307349086000BF7248C8
:10029000006800F4003000900198401C0190009824
:1002A00018B90198B0F5A04FF1D16B48006800F47F
:1002B000003010B10120009001E000200090009873
:1002C000012846D164484030006840F080506249BF
:1002D000403108606148006840F440405F49086070
:1002E0005D48083000685C490831086008460068CD
:1002F00040F4004008600846006840F4A0500860E0
:100300005748091F0860081F006840F08070091FE7
:10031000086000BF5048006800F000700028F9D065
:1003200040F205704F4908604B480830006820F0E3
:1003300003004949083108600846006840F002009F
:10034000086000BF44480830006800F00C0008282E
:10035000F8D10CBD10B54448006840F47000424923
:1003600008603D48006840F001003B4908600020FB
:10037000394908310860384800683C490840364926
:1003800008603B48091D0860081F006820F48020B1
:10039000091F0860002030490C310860FFF76CFF2E
:1003A000344831498039086010BD70B50020002202
:1003B000022300240221284D08352D6805F00C0089
:1003C00020B1042806D0082834D107E02A4D2B4E4E
:1003D000356033E02A4D294E35602FE01E4D2D1D2E
:1003E0002D68C5F380541C4D2D1D2D6805F03F016F
:1003F00054B1234DB5FBF1F5174E361D3668C6F3E3
:10040000881605FB06F209E01B4DB5FBF1F5124E0F
:10041000361D3668C6F3881605FB06F20E4D2D1DF7
:100420002D68C5F301456D1C6B00B2FBF3F5134E4F
:10043000356003E0104D114E356000BF00BF064D22
:1004400008352D68C5F303150E4E705D0B4D2D68F4
:10045000C5400A4E356070BD003802400070004053
:1004600008544007003C024088ED00E0FFFFF6FE24
:1004700010300024000001080024F40000000020D7
:1004800000127A000400002010B586B04FF4A0607E
:1004900000F00EF9A82006F0ABFB06F0F5FE06F022
:1004A000B9FD4FF480704649464A0123CDE9013237
:1004B0000093CDE903104FF4E133434A43494448E4
:1004C00002F0DEFE09F0D2F809F070FC002006F020
:1004D00028FC022006F025FC07F0F5FF3D490870D6
:1004E00008460078002829D000203B4908600024F5
:1004F0001EE04FF47A620021282006F021FD6420DE
:1005000006F0D8FB06F02CFD642006F0D3FB07F0C4
:10051000DAFF60B900202F4908703048D0E9122076
:10052000030343EA12512EA00DF0FCFD02E0641C0F
:10053000032CDEDB00BF0120274908602548007836
:10054000002829D12548D0E91220030343EA12519B
:1005500023A00DF0E7FD03F031FC274901220868D4
:1005600026A104F081FD04461CB1214624A00DF013
:10057000D9FD02E028A00DF0D5FD04AA05A92CA004
:1005800003F0B8FC0028F5D10498820A0598810A86
:1005900028A00DF0C7FD00BF3148324B324A01217F
:1005A000009032480BF056FF09F068FC07F07CF829
:1005B00040F24731632006F087FE06B010BD000010
:1005C000280200202801002050EE010858EE010802
:1005D0000010014014000020BC02414218B201206A
:1005E000436172642043617061636974793A256480
:1005F000204D420D0A00000028060020303A00007D
:10060000665F6D6F756E74206572726F72203A202E
:1006100025640D0A000000005344204361726420E9
:100620004661746673204572726F7221000000008B
:1006300030000000534420436172642046617466B8
:10064000733A20746F74616C3A2564204D422C20FB
:10065000667265653A2564204D420D0A000000006F
:10066000DC000020BC00002094B9012018BA012051
:100670000948804709480047FEE7FEE7FEE7FEE736
:10068000FEE7FEE7FEE7FEE7FEE7FEE70448054972
:10069000054A064B7047000055030108890101080F
:1006A00028C0012028C6012028C2012028C201201C
:1006B00032490143324A1160704770B5002100236E
:1006C0000F22C4781CB32E4C246804F4E064C4F5F3
:1006D000E064C4F30721C1F10404E3B20A414478A1
:1006E0009C40E1B28478144021430C07210E254C34
:1006F00005786155047804F01F050124AC400578A5
:100700006D11AD0005F1E025C5F8004109E0047860
:1007100004F01F050124AC401B4D0678761145F806
:10072000264070BD194A0A400243154B1B1F1A6030
:10073000704739B1124A121D12680243104B1B1D3B
:100740001A6006E00E4A121D126882430C4B1B1DF4
:100750001A607047042808D14FF0E021096941F080
:1007600004014FF0E022116107E04FF0E021096938
:1007700021F004014FF0E022116170470000FA05FA
:100780000CED00E000E400E080E100E080FFFF1FEE
:1007900010B504469848844208D10121084600F06B
:1007A00086FB0021012000F082FB76E09348844222
:1007B00008D10121022000F07AFB0021022000F084
:1007C00076FB6AE08E48844208D10121042000F0C3
:1007D0006EFB0021042000F06AFB5EE08948844241
:1007E00008D10121082000F062FB0021082000F060
:1007F0005EFB52E08448844208D10121102000F0C1
:1008000056FB0021102000F052FB46E07F48844256
:1008100008D10121202000F04AFB0021202000F017
:1008200046FB3AE07A48844208D10121402000F09A
:100830003EFB0021402000F03AFB2EE07548844248
:1008400008D10121802000F032FB0021802000F03F
:100850002EFB22E07048844208D10121801500F06F
:1008600026FB0021A01500F022FB16E06B48844215
:1008700008D10121401500F01AFB0021601500F09D
:1008800016FB0AE06648844207D10121001500F0FA
:100890000EFB0021201500F00AFB10BDF0B50A4642
:1008A00000210023002400BF3DE0012505FA01F3EB
:1008B000156805EA03049C4234D105684F000326FD
:1008C000BE40B543056015794E00B5400668354316
:1008D00005601579012D02D01579022D16D1856894
:1008E0004F000326BE40B543856055794E00B540A4
:1008F000866835438560456801268E40B54345606E
:10090000456896798E40B6B235434560C5684F005C
:100910000326BE40B543C560D5794E00B540C668D4
:100920003543C560491C1029BFD3F0BD4FF6FF7198
:1009300001600021017141718171C171704708B579
:100940004FF480320092009A0A430092009AC261EA
:10095000C161009AC261C2690092C269009208BD79
:100960000246002013690B400BB1012000E000207B
:1009700070470146086980B27047024600205369FB
:100980000B400BB1012000E0002070470146486990
:1009900080B2704701837047418370470AB1018379
:1009A00000E0418370474161704742694A404261BB
:1009B0007047F0B5002300244D07ED0E02FA05F351
:1009C000CE1000F1200555F826504E07F70E0F26E1
:1009D000BE40B543CF1000F1200646F82750CE1098
:1009E00000F1200555F8265045EA0304CE1000F129
:1009F000200545F82640F0BD0000024000040240FA
:100A000000080240000C02400010024000140240A6
:100A100000180240001C0240002002400024024056
:100A200000280240F948006840F00100F7490860DA
:100A30000020F64908310860F4480068F44908408D
:100A4000F2490860F348091D0860F348EF49843112
:100A50000860F0481038091D0860EC48006820F470
:100A60008020EA4908600020E8490C310860E74925
:100A70008C31086070470021E44A921C11701146C5
:100A80000870704710B501460022002300204A116B
:100A9000012A02D1DD4C236808E0022A03D1DB4C95
:100AA0007034236802E0D94C7434236801F01F02CB
:100AB000012494401C400CB1012000E0002010BD36
:100AC00038B5002000900024002500BF3120FFF73A
:100AD000D9FF05460098401C00900098B0F5A04F43
:100AE00001D0002DF2D03120FFF7CCFF08B1012456
:100AF00000E00024204638BD01460020C34A1068AB
:100B000020F0F80040EAC10010607047C349086057
:100B100070470021BD4A703211701170012802D057
:100B200004280AD104E00121B84A7032117005E0AE
:100B30000521B64A7032117000E000BF00BF704757
:100B4000B7490860704770B5049C41EA82150126D8
:100B5000C6EB530645EA0645054345EA0465AB4E38
:100B6000361D356070BDAD4908667047820142EAA6
:100B70000172A64B84331A607047A8498866704793
:100B800010B5830143EA016343EA02739F4C883442
:100B9000236010BDA14908677047A049C864704729
:100BA00002460020994B0833186820F0EC6042EAB6
:100BB00001031843954B0833186070470246002024
:100BC000924B0833186820F0784042EA010318433A
:100BD0008E4B083318607047014600208B4A08325C
:100BE000106820F003000843106070478748083001
:100BF000006800F00C00704701460020834A08326C
:100C0000106820F0F0000843106070470146002093
:100C10007E4A0832106820F4E050084310607047A4
:100C200001460020794A0832106820F4604040EA0A
:100C3000C10010607047F0B5002100220024022599
:100C400000260223714F08373F6807F00C0121B1DD
:100C5000042905D0082937D105E0724F076036E036
:100C6000714F076033E0694F3F1D3F68C7F38056FF
:100C7000664F3F1D3F6807F03F036EB16A4FB7FBF9
:100C8000F3F7DFF888C10CF1040CDCF800C0CCF3FA
:100C9000881C07FB0CF40CE0624FB7FBF3F7DFF89E
:100CA0006CC10CF1040CDCF800C0CCF3881C07FB11
:100CB0000CF4564F3F1D3F68C7F301477F1C7D0072
:100CC000B4FBF5F7076002E0564F076000BF00BFB6
:100CD0004E4F08373F6807F0F0010909534F7A5C1F
:100CE0000768D7404760494F08373F6807F4E0512D
:100CF000890A4E4F7A5C4768D7408760434F083770
:100D00003F6807F46041490B484F7A5C4768D74019
:100D1000C760F0BD002100F44072B2F5407F0AD1F7
:100D20003A4A0832116821F4F811414A024011434D
:100D3000364A08321160354A70321268C0F30B032C
:100D40001A43324B70331A60704735494439086092
:100D5000704733494039086070473649086070472A
:100D600001460020294A8C32106820F01F004A1EDC
:100D70001043264A8C321060704701460020234AF7
:100D80008C32106820F4F8504A1E40EA02201F4AB4
:100D90008C3210607047014600201C4A8C3210686B
:100DA00020F4401008431060704701460020174AA5
:100DB0008C32106820F440000843106070470146F0
:100DC0000020124A8C32106820F440300843106032
:100DD000704719490860704739B10C4A30321268BF
:100DE00002430A4B30331A6006E0084A3032126878
:100DF0008243064B30331A607047F9B1034A3432EC
:100E000012680243014B34331A601CE00038024080
:100E1000FFFFF6EA103000240030002000004742B7
:100E2000800E47420024F40000127A0015000020D2
:100E3000FFFCFF0F5C014742E01147428F4A1268F6
:100E400082438E4B1A60704739B18C4A121D12686A
:100E500002438A4B1B1D1A6006E0884A121D126865
:100E60008243864B1B1D1A60704739B1834A0C328E
:100E700012680243814B0C331A6006E07F4A0C3241
:100E8000126882437D4B0C331A60704739B17B4A3C
:100E9000103212680243794B10331A6006E0774A29
:100EA000103212688243754B10331A60704739B1A3
:100EB000724A243A12680243704B243B1A6006E0DF
:100EC0006E4A243A126882436C4B243B1A60704786
:100ED00039B16A4A203A12680243684B203B1A60D3
:100EE00006E0664A203A12688243644B203B1A604F
:100EF000704739B1614A1C3A126802435F4B1C3B90
:100F00001A6006E05D4A1C3A126882435B4B1C3B48
:100F10001A60704739B1594A143A12680243574B64
:100F2000143B1A6006E0554A143A12688243534B48
:100F3000143B1A60704739B1504A103A12680243A4
:100F40004E4B103B1A6006E04C4A103A126882433E
:100F50004A4B103B1A60704739B1484A1C3212683C
:100F60000243464B1C331A6006E0444A1C321268A6
:100F70008243424B1C331A60704739B13F4A2032DA
:100F8000126802433D4B20331A6006E03B4A203290
:100F900012688243394B20331A60704739B1374A9F
:100FA000243212680243354B24331A6006E0334A78
:100FB000243212688243314B24331A60704739B1AE
:100FC0002E4A2C32126802432C4B2C331A6006E056
:100FD0002A4A2C3212688243284B2C331A607047FD
:100FE00039B1264A303212680243244B30331A603A
:100FF00006E0224A303212688243204B30331A60B6
:101000007047012808D11D493C31096841F00801A9
:101010001A4A3C32116007E018493C31096821F056
:101020000801164A3C321160704739B1134A273A19
:1010300012780243114B273B1A7006E00F4A273AF9
:10104000127882430D4B273B1A7070470B48403093
:10105000006840F0807009494031086070470146DF
:101060000020064A283A12680A400AB1012000E02E
:101070000020704701492639087070473438024013
:1010800010B50121C802FFF756FF00214FF40060A0
:10109000FFF751FF10BD00216C4A116847F6FF624F
:1010A0009143027D83681A4343681A43C3681A4315
:1010B00003681A4303691A431143644A1160704775
:1010C00000210175016041608160C160016170476C
:1010D0005F49086070475D49091F086070475B48B9
:1010E000001F006800F0030070470021574B1B1DD4
:1010F00002681A601A1D11686FF30A01D0E9012312
:101100001A43C3681A4303691A4311434F4A08320A
:10111000116070470021016041608160C160016120
:1011200070474A480C300068C0B2704708B50146A5
:101130000020009045481030084400900098006856
:1011400008BD0021414B203302681A601B1D426814
:101150001A601A1D116821F0F701D0E902231A4321
:1011600003691A4343691A431143384A283211600C
:1011700070474FF0FF310160002141608160C16024
:1011800001614161704731482C30006870472F4839
:101190007C30006870472D497C31086070472B48CF
:1011A0004430006870472B49086070472949091D81
:1011B00008607047274908310860704725490C319D
:1011C000086070472449086070472349091D08607A
:1011D000704701218143204A0832116070471E493F
:1011E0000C31086070471B4914390860704739B1E9
:1011F000164A383212680243144B38331A6006E03C
:10120000124A383212688243104B38331A607047E2
:10121000014600200D4A303212680A400AB101200E
:1012200000E00020704709493431086070470146EA
:101230000020064A303212680A400AB1012000E05C
:10124000002070470149343108607047042C014088
:10125000A0802542A0852542AC81254210B5012100
:101260008803FFF768FE00214FF48040FFF763FE1C
:1012700010BD1C49086070471B490862704730B5B3
:1012800000228B071C0F0F2303FA04F2154B0833BF
:101290008C1053F824309343124C08348D1044F8CA
:1012A000253023468C1053F824308C07240F00FA85
:1012B00004F423430B4C08348D1044F8253030BD22
:1012C0000949DC3108607047084908607047002010
:1012D00004492031096801F4807109B1012000E05E
:1012E00000207047003801400000274200042742D8
:1012F00010B50446FE48844208D101210846FFF794
:101300001AFE00210120FFF716FE9DE0B4F1804F88
:1013100008D101210846FFF7FDFD00210120FFF75C
:10132000F9FD91E0F348844208D101210220FFF742
:10133000F1FD00210220FFF7EDFD85E0EE4884423B
:1013400008D101210420FFF7E5FD00210420FFF76B
:10135000E1FD79E0E948844208D101210820FFF746
:10136000D9FD00210820FFF7D5FD6DE0E448844257
:1013700008D101211020FFF7CDFD00211020FFF73B
:10138000C9FD61E0DF48844208D101212020FFF738
:10139000C1FD00212020FFF7BDFD55E0DA48844261
:1013A00008D101210220FFF7C6FD00210220FFF72E
:1013B000C2FD49E0D548844209D101210804FFF764
:1013C000BAFD00214FF48030FFF7B5FD3CE0D04876
:1013D000844209D101214804FFF7ADFD00214FF4FB
:1013E0000030FFF7A8FD2FE0CA48844209D101214F
:1013F0008804FFF7A0FD00214FF48020FFF79BFD3C
:1014000022E0C548844208D101214020FFF782FD37
:1014100000214020FFF77EFD16E0C048844208D13D
:1014200001218020FFF776FD00218020FFF772FD6B
:101430000AE0BB48844207D101218015FFF76AFD0D
:101440000021A015FFF766FD10BD00220288A84B01
:1014500098420ED0AC4B98420BD0B0F1804F08D0E0
:10146000A44B984205D0A44B984202D0A34B98427B
:1014700004D14FF68F731A404B881A43A04B984201
:1014800007D0A04B984204D04FF6FF431A400B8977
:101490001A4302804B68C3620B880385944B9842C1
:1014A00002D0994B984201D18B7A03860123838223
:1014B00070474FF0FF314160002101800181418080
:1014C000817270470185828270470A460021018837
:1014D0004FF68F7319401143018070474162704786
:1014E000C16270470146486A70470146088D7047DF
:1014F00021B1028842F00202028004E002884FF625
:10150000FD731A400280704721B1028842F0040244
:10151000028004E002884FF6FB731A400280704795
:1015200021B1028842F08002028004E002884FF676
:101530007F731A400280704702884FF6F7731A4093
:10154000028002880A430280704702884FF6FF43F8
:101550001A40028002880A430280704721B1028843
:1015600042F00102028004E002884FF6FE731A4046
:101570000280704770B5002400220023058C4FF6CE
:10158000FE7635400584028C8388048B4FF68F7578
:101590002C40B51E2C400D882C43751E2A408D8989
:1015A0002A434D882A43524DA84202D0564DA842A4
:1015B00013D14FF6F7752A40CD892A434FF6FB75B4
:1015C0002A408D882A434FF6FF652B404FF6FF5582
:1015D0002B400D8A2B434D8A2B43838004838D68D7
:1015E0004563028470BD70B5002400220023058C81
:1015F0004FF6EF7635400584028C8388048B48F6DD
:10160000FF752C404FF6FF452C400D884FF6FF76B6
:1016100006EA05252C434FF6DF752A408D8906EA38
:1016200005152A434D8806EA05152A43304DA84280
:1016300002D0354DA8421DD14FF67F752A40CD8985
:101640004FF6FF7606EA05152A434FF6BF752A4086
:101650008D8806EA05152A434FF6FF352B404FF2D9
:10166000FF752B400D8A06EA85052B434D8A06EA55
:1016700085052B43838004838D688563028470BD58
:1016800070B5002400220023058C4FF6FF6635401C
:101690000584028C8388848B4FF68F752C404FF61F
:1016A000FC752C400D882C434FF6FF552A408D8940
:1016B0004FF6FF7606EA05252A434D8806EA0525FA
:1016C0002A430B4DA84202D00F4DA84238D14FF209
:1016D000FF752A40CD894FF6FF7606EA05252A4395
:1016E0004FF6FF352A408D8806EA05252A4319E082
:1016F000000001400004004000080040000C0040D1
:10170000001000400014004000040140004001406F
:10171000004401400048014000180040001C004007
:10172000002000404EF6FF752B404DF6FF752B4014
:101730000D8A06EA05152B434D8A06EA05152B434B
:10174000838084838D68C563028470BD70B5002278
:1017500000230024058C4EF6FF7635400584038C6B
:101760008488828B48F6FF752A404FF6FF452A4051
:101770000D884FF6FF7606EA05252A434DF6FF75DC
:101780002B408D8906EA05352B434D8806EA053541
:101790002B43FE4DA84202D0FD4DA84208D14BF686
:1017A000FF752C400D8A4FF6FF7606EA85152C430F
:1017B000848082838D680564038470BD002101806C
:1017C0004180818081608181C18101824182704735
:1017D00070B50346002000241846183001258D40BE
:1017E000ACB21D8CA5431D8409B108290AD100EBB8
:1017F000610005684FF68F76354005600568154332
:1018000005600FE00D1FC5F34E052844056848F636
:10181000FF763540056005684FF6FF7606EA02263A
:101820003543056070BD4163704781637047C16394
:101830007047016470470A460021018B4FF68F7391
:1018400019401143018370470A460021018B48F675
:10185000FF7319404FF6FF7303EA02231943018314
:1018600070470A460021818B4FF68F731940114350
:10187000818370470A460021818B48F6FF73194027
:101880004FF6FF7303EA02231943818370470A4628
:101890000021018B4FF6F773194011430183704704
:1018A0000A460021018B4FF2FF7319404FF6FF7378
:1018B00003EA02231943018370470A460021818B02
:1018C0004FF6F77319401143818370470A46002190
:1018D000818B4FF2FF7319404FF6FF7303EA022327
:1018E0001943818370470A460021018B4FF6FB7331
:1018F00019401143018370470A460021018B4FF6BE
:10190000FF3319404FF6FF7303EA022319430183A3
:1019100070470A460021818B4FF6FB731940114333
:10192000818370470A460021818B4FF6FF331940AF
:101930004FF6FF7303EA02231943818370470A4677
:101940000021018B4FF67F731940114301837047CB
:101950000A460021018BC1F30E014FF6FF7303EA23
:1019600002231943018370470A460021818B4FF6F9
:101970007F7319401143818370470A460021818B90
:10198000C1F30E014FF6FF7303EA0223194381836B
:1019900070470A460021018C4FF6FD731940114330
:1019A000018470470A460021018C4FF6F7731940F5
:1019B0001143018470470A460021018C4FF6DF7302
:1019C00019404FF6FF7303EA02131943018470476D
:1019D0000A460021018C4FF67F7319404FF6FF73C2
:1019E00003EA02131943018470470A460021018C5F
:1019F0004FF6FF5319404FF6FF7303EA02231943D2
:101A0000018470470A460021018C4FF2FF73194090
:101A10004FF6FF7303EA02231943018470470A4615
:101A20000021018C4DF6FF7319404FF6FF7303EA56
:101A3000023319430184704730B5002301248C40E0
:101A4000A3B2048C9C430484048C02FA01F5ADB269
:101A50002C43048430BD30B5002304248C40A3B251
:101A6000048C9C430484048C02FA01F5ADB22C432F
:101A7000048430BD828B4FF2FF331A408283828B05
:101A80004FF6FF7303EA01231A4382837047F0B5D0
:101A90000C461546002100220026078C4EF6FF7CDE
:101AA00007EA0C070784818B028C4FF6FF7707EA61
:101AB000043640F6FF4739404FF6FF7707EA05271F
:101AC00039434FF6FF7707EA0337394345F6FF7787
:101AD0003A4046F480573A4381830284F0BD828BBA
:101AE0004FF6F3731A408283828B0A4382837047D6
:101AF000F0B50C461546002100220026078C4FF653
:101B0000FF6C07EA0C070784818B028C4FF6FF7786
:101B100007EA04264FF60C7739404FF6FF7707EABD
:101B200003172F4339434FF2FF573A4046F480776B
:101B30003A4381830284F0BD028B4FF2FF331A4097
:101B40000283028B4FF6FF7303EA01231A430283D9
:101B50007047F0B50C461546002100220026078C80
:101B60004FF6EF7C07EA0C070784018B028C4FF6D7
:101B7000FF7707EA041640F6FF4739404FF6FF7734
:101B800007EA033739434FF6FF7703E000000140CF
:101B90000004014007EA052739434FF65F773A40D2
:101BA00046F010073A4301830284F0BD028B4FF6E2
:101BB000F3731A400283028B0A4302837047F0B525
:101BC0000C46154600210022068C4FF6FE773E405B
:101BD0000684018B028C4FF60C7631407E1C06EA9F
:101BE00003162E4331434FF6F576324044F001069A
:101BF000324301830284F0BD70B505460C4620884F
:101C000050B92389A28861882846FFF7D8FFE18868
:101C10002846FFF7CBFF25E0208804280AD1238936
:101C2000A28861882846FFF794FFE1882846FFF7DD
:101C300083FF17E0208808280AD12389A2886188B9
:101C40002846FFF755FFE1882846FFF748FF09E0DF
:101C50002389A28861882846FFF719FFE188284672
:101C6000FFF708FF70BD00210180418001218180C4
:101C70000021C180018170472DE9F04105460C46E5
:101C800000260127608808B9022600E00026A08807
:101C9000012801D1022700E001272088A0B923896B
:101CA000A28861882846FFF78AFFE1882846FFF767
:101CB0007DFF23893A4631462846FFF74AFFE188EF
:101CC0002846FFF739FF13E02389A2886188284658
:101CD000FFF73FFFE1882846FFF72EFF23893A46AA
:101CE00031462846FFF76BFFE1882846FFF75EFF85
:101CF000BDE8F0810146486B70470146886B70472C
:101D00000146C86B70470146086C70470A884B88CB
:101D10001A438B881A43CB881A430B891A434B8981
:101D20001A438B891A43A0F8442070470021018090
:101D300041808180C180018141818181704731B1C1
:101D4000B0F8442042F40042A0F8442005E0B0F886
:101D50004420C2F30E02A0F84420704721B18288CB
:101D600042F00402828004E082884FF6FB731A403E
:101D70008280704721B1828842F00102828004E0B3
:101D800082884FF6FE731A40828070471AB18389A9
:101D90000B43838102E083898B4383817047818277
:101DA000704702460020138A0B400BB1012000E06F
:101DB00000207047CA430282704730B502460020B7
:101DC00000230024158A05EA0103958905EA010428
:101DD00013B10CB1012000E0002030BDCA430282E3
:101DE000704741EA0203A0F8483070471AB183896E
:101DF0000B43838102E083898B438381704721B148
:101E0000828842F00802828004E082884FF6F773ED
:101E10001A408280704701894FF6F87211400181A3
:101E200070470A46002101894FF68F73194011430C
:101E30000181704730B504460D4629462046FFF71C
:101E4000F0FF208940F00700208130BD2DE9F041EE
:101E500004460D4616461F46602D06D13B4601221C
:101E600031462046FFF775FE05E03B46012231462C
:101E70002046FFF7A4FE29462046FFF7D2FF20891F
:101E800040F007002081BDE8F08130B50C4600210C
:101E90000189C9B24FF6FF7505EA032515432543AD
:101EA0002943018130BD2DE9F04105460E46174614
:101EB0009846002443463A4631462846FFF7E5FF58
:101EC0002C894FF6F870044044F007044FF68F70E9
:101ED000044044F070042C81BDE8F081F0B5044664
:101EE0000D4616461F463B46324629462046FFF71A
:101EF000CCFF208940F480402081F0BD82884FF6DD
:101F00008F731A40828082880A43828070470289D8
:101F10004FF6F8731A40028102890A430281704722
:101F200002894FF67F731A40028102890A430281B7
:101F30007047F0B50C4615461E46002100220023CE
:101F40000189028B038C4FF6F877394021434FF615
:101F5000FC473A4040F201173A434FF6DD773B40E9
:101F60004FF6FF7707EA06172F433B4301810283B1
:101F70000384F0BD21B1828842F08002828004E0B7
:101F800082884FF67F731A4082807047A0F8501005
:101F90007047000010B50446FA48844208D1012178
:101FA0001020FEF7C8FF00211020FEF7C4FF57E005
:101FB000F548844209D101214804FEF7ABFF002116
:101FC0004FF40030FEF7A6FF4AE0F048844209D102
:101FD00001218804FEF79EFF00214FF48020FEF7C8
:101FE00099FF3DE0EA48844209D10121C804FEF787
:101FF00091FF00214FF40020FEF78CFF30E0E54810
:10200000844209D101210805FEF784FF00214FF425
:102010008010FEF77FFF23E0DF48844208D10121D2
:102020002020FEF788FF00212020FEF784FF17E024
:10203000DA48844209D101218807FEF76BFF0021AD
:102040004FF08040FEF766FF0AE0D548844207D192
:1020500001214005FEF75EFF00216005FEF75AFFF3
:1020600010BD2DE9FF4705460E460024A14600BFDE
:10207000A046B08900B100BF2C8A24F44054F088F7
:1020800004432C82AC8941F20C608443B0883189CE
:102090000843718908430443AC81AC8A24F440743A
:1020A000B0890443AC826846FEF7C5FDB548854259
:1020B00002D0B948854202D1DDF80C9001E0DDF88C
:1020C0000890A88900F4004040B109EBC90000EB7A
:1020D000091031684900B0FBF1F707E009EBC900CE
:1020E00000EB091031688900B0FBF1F76420B7FB01
:1020F000F0F004012009642101FB1078A88900F4A4
:10210000004040B1322000EBC800B0FBF1F000F01D
:102110000700044308E0322000EB08106421B0FB04
:10212000F1F000F00F0004432C81BDE8FF874FF46D
:102130001651016000218180C18001810C21418103
:1021400000218181704710B502460020108A20F4DA
:1021500070600B884C8823438C882343CC882343AE
:102160001843108210BD0021018041808180C18010
:10217000704721B1828942F40052828104E0828951
:102180004DF6FF731A4082817047028B02F47F4242
:102190000283028B0A430283704721B1828942F491
:1021A0000042828103E08289C2F30E02828170477D
:1021B00021B1828A42F40062828204E0828A4FF274
:1021C000FF731A4082827047C1F308028280704711
:1021D00001468888C0F308007047028A4FF6F07302
:1021E0001A400282028A0A430282704721B1828920
:1021F00042F00202828104E082894FF6FD731A40A8
:102200008281704782894FF2FF731A4082818289EE
:102210000A4382817047028A4FF6DF731A400282B6
:10222000028A0A430282704721B1028A42F4804244
:10223000028204E0028A4BF6FF731A400282704762
:10224000818941F001018181704721B1828A42F088
:102250000802828204E0828A4FF6F7731A40828273
:102260007047028BD2B20283028B42EA01220283C0
:10227000704721B1828A42F02002828204E0828A81
:102280004FF6DF731A408282704721B1828A42F092
:102290001002828204E0828A4FF6EF731A40828233
:1022A0007047828A4FF6FB731A408282828A0A4301
:1022B0008282704721B1828A42F00202828204E067
:1022C000828A4FF6FD731A40828270471AB1838A60
:1022D0000B43838202E0838A8B4383827047F0B58D
:1022E0000346002400260025002040F66A17B94264
:1022F00000D100BF1846C1F3421401F01F060127A8
:1023000007FA06F5012C01D10C3004E0022C01D1B2
:10231000103000E014301AB107682F43076002E064
:102320000768AF430760F0BD02460020B1F5007FAB
:1023300000D100BF13880B400BB1012000E000204A
:10234000704701F40072B2F5007F00D100BFCA43AC
:102350000280704770B5024600240023002500204B
:1023600040F66A16B14200D100BFC1F3421501F038
:102370001F03012606FA03F3012D13D1968933407A
:1023800017E00000001001400044004000480040F9
:10239000004C004000500040001401400078004014
:1023A000007C0040022D02D1168A334001E0968A5B
:1023B00033400C12012606FA04F41688344013B197
:1023C0000CB1012000E0002070BD10B500220023F8
:1023D00040F66A14A14200D100BF0A1201249440C1
:1023E000A3B2DC43048010BD016821F0010101604B
:1023F0000021016041608160C16001612121416172
:10240000DB49884204D13D21D94A103A91608CE0E1
:10241000D7491831884205D14FF47461D44A103A33
:10242000916082E0D2493031884205D14FF4741175
:10243000CF4A103A916078E0CD494831884205D1C1
:102440004FF07461CA4A103A91606EE0C849603139
:10245000884204D1C749C64A103AD16065E0C449F0
:102460007831884204D1C449C14A103AD1605CE055
:10247000BF499031884204D1C049BD4A103AD16069
:1024800053E0BB49A831884205D14FF03D51B84ACD
:10249000103AD16049E0BA49884204D13D21B84A96
:1024A000083A116041E0B6491831884205D14FF42D
:1024B0007461B34A083A116037E0B149303188425B
:1024C00005D14FF47411AE4A083A11602DE0AC49C1
:1024D0004831884205D14FF07461A94A083A116029
:1024E00023E0A7496031884204D1A249A44A121FBF
:1024F00011601AE0A2497831884204D19E49A04A6D
:10250000121F116011E09E499031884204D19B490D
:102510009B4A121F116008E09949A831884204D1F2
:102520004FF03D51964A121F1160704710B50022BE
:102530000268944B1A40CC680B6823434C692343D0
:102540008C692343CC6923430C6A23434C6A23439D
:102550008C6A23434C6B23438C6B23431A430260E6
:10256000426922F00702D1E90B3423431A43426146
:102570000B6943604B6883608B68C36010BD0021AA
:10258000016041608160C160016141618161C1613F
:10259000016241628162C16201634163816370478C
:1025A00021B1026842F00102026003E0026822F0F9
:1025B00001020260704721B1026842F400420260E9
:1025C00003E0026822F400420260704721B1026811
:1025D00042F02002026003E0026822F02002026062
:1025E0007047416070470146486880B2704722B129
:1025F000036843F40023036003E0036823F400232B
:1026000003600161704721B1026842F480220260D8
:1026100003E0026822F48022026070470AB101617F
:1026200000E0C1607047014600200A6802F4002201
:102630000AB1012000E000207047014600200A682E
:1026400002F001020AB1012000E0002070470146BB
:1026500000204A6902F03800704730B503460A4648
:1026600000200024464DAB4202D24149103901E01E
:102670004349103902F000550DB14C6800E00C6878
:10268000414D2C4004EA02050DB1012000E000207C
:1026900030BD02463A4B9A4202D23548103801E02A
:1026A0003748103801F000531BB1374B0B40C36063
:1026B00002E0354B0B408360704710B501F080039A
:1026C0004BB122B1436943F08003436103E04369A6
:1026D00023F08003436180290BD02AB1036801F005
:1026E0001E042343036004E0036801F01E04A343B7
:1026F000036010BD70B50246002000240025204E66
:10270000B24202D21A4B103B01E01D4B103B1F4E50
:102710000E4036B11E2606EAD124166806EA0405E4
:1027200002E0566906F0800501F000560EB15C68C3
:1027300000E01C68144E344004EA010616B10DB1E5
:10274000012000E0002070BD02460D4B9A4202D2EB
:102750000748103801E00A48103801F000531BB157
:10276000094B0B40C36002E0074B0B40836070478E
:10277000106002403D000020400F002000003D207E
:10278000106402403F801CF07D0F7D0F3C0F3C0F1A
:10279000002041490860091D0860091D0860091DE5
:1027A00008603E483C4914310860704700213A49AE
:1027B0008279002A3AD00A46126803689A430B4687
:1027C0001A600A1D126803689A430B1D1A60027989
:1027D00011440A6803681A430A602F4A08321268D3
:1027E00003689A432C4B08331A601A1D1268036859
:1027F0009A43294B0C331A604279102A0ED11A1FC2
:10280000126803681A43244B08331A601A1D1268B1
:1028100003681A43204B0C331A600DE01E494279BD
:1028200011440A6803681A430A6005E002791144FA
:102830000A6803689A430A607047002101600171C9
:102840000C214171002181717047134910310968D1
:102850000143114A103211607047014600200E4AB0
:10286000143212680A400AB1012000E000207047CB
:10287000094914310860704701460020064A1432A5
:1028800012680A400AB1012000E0002070470249A6
:102890001431086070470000003C0140FFFF7F00DA
:1028A00070B505466F492868884201D101242EE0A1
:1028B0006D492868884201D1022428E06B492868C4
:1028C000884201D1042422E069492868884201D164
:1028D00008241CE067492868884201D1102416E0CA
:1028E00065492868884201D1202410E0634928689E
:1028F000884201D140240AE061492868884201D118
:10290000802404E05F492868884200D184150121B1
:102910002046FEF761FA70BD01464A68B2F5807F35
:102920003BD012DC102A30D008DC012A25D0022A44
:1029300025D0042A25D0082A3FD124E0202A26D0F9
:10294000402A26D0802A38D125E0B2F5805F2CD0ED
:1029500009DCB2F5007F22D0B2F5806F21D0B2F54C
:10296000006F2AD11FE0B2F5005F20D0B2F5804F92
:102970001FD0B2F5004F20D11DE000201DE0012046
:102980001BE0022019E0032017E0042015E00520D9
:1029900013E0062011E007200FE008200DE00920D9
:1029A0000BE00A2009E00B2007E00C2005E00D20D9
:1029B00003E00E2001E00F2000BF00BF704770B59C
:1029C00004460D462046FFF7A7FF06462A46314635
:1029D0002068FDF7EEFF70BD2DE9FC4180460D46F5
:1029E000C5F3074030B1012806D0022806D00328DD
:1029F00008D105E0002405E0012403E0022401E001
:102A0000032400BF00BFC5F3072010B1012804D183
:102A100001E0002701E0012700BF00BFE8B220B1BC
:102A2000012804D0022806D103E0002603E0012695
:102A300001E0022600BF00BF4046FFF731FFD8F893
:102A4000040000908DF804408DF8067003208DF886
:102A500005008DF807606946D8F80000FDF71EFFF5
:102A6000BDE8FC8100000240000402400008024072
:102A7000000C024000100240001402400018024006
:102A8000001C02400020024010B50446FE4884426B
:102A900004D101210846FEF7F9F966E0B4F1804F50
:102AA00004D101210846FEF7E0F95EE0F7488442D0
:102AB00004D101210220FEF7D8F956E0F4488442FF
:102AC00004D101210420FEF7D0F94EE0F148844200
:102AD00004D101210820FEF7C8F946E0EE488442FF
:102AE00004D101211020FEF7C0F93EE0EB488442FA
:102AF00004D101212020FEF7B8F936E0E8488442ED
:102B000004D101210220FEF7C1F92EE0E5488442FC
:102B100004D101210804FEF7B9F926E0E248844215
:102B200004D101214804FEF7B1F91EE0DF488442D8
:102B300004D101218804FEF7A9F916E0DC4884429B
:102B400004D101214020FEF790F90EE0D9488442DB
:102B500004D101218020FEF788F906E0D64884429E
:102B600003D101218015FEF780F910BD0146B1F1B6
:102B7000804F01D11C203FE0C44A914201D11D2069
:102B80003AE0C34A914201D11E2035E0C14A914248
:102B900001D1322030E0C04A914201D136202BE0F1
:102BA000BE4A914201D1372026E0BE4A914201D16E
:102BB000182021E0BC4A914201D119201CE0BB4AF7
:102BC000914201D11A2017E0B94A914201D12B203C
:102BD00012E0B84A914201D12C200DE0B64A914250
:102BE00001D12D2008E0A84A914201D1192003E02B
:102BF000AB4A914200D12C2070470146A24A914233
:102C000001D1012035E0B1F1804F01D1012030E048
:102C10009E4A914201D102202BE09D4A914201D16E
:102C2000022026E09B4A914201D1022021E09C4AE9
:102C3000914201D103201CE09A4A914201D1032024
:102C400017E0994A914201D1032012E0974A91423C
:102C500001D103200DE0964A914201D1092008E0FC
:102C6000944A914201D1092003E0934A914200D154
:102C700009207047FEB506460C4615463046FFF75C
:102C800003FF0194ADF800500020ADF80200ADF84C
:102C9000080069463046FEF7D8FB01213046FEF7B2
:102CA0003FFC01213046FEF759FCFEBD2DE9FF41F6
:102CB00007460C4615461E46DDF828803846FFF7C5
:102CC000E3FE0294ADF804500020ADF80600ADF824
:102CD0000C0001A93846FEF7B8FB01221146384620
:102CE000FFF754F801213846FEF738FC3846FFF765
:102CF0003DFF8DF800008DF801608DF80280012005
:102D00008DF803006846FDF7D8FCBDE8FF812DE98A
:102D1000FF4F89B0894692461C46DDE9186BDDE914
:102D200016580998FFF7B0FE8CB164492068FFF788
:102D300053FE0998FFF761FF01902068FFF7ECFD53
:102D4000009021680868DDE90012FDF732FE8DB1C0
:102D50005A492868FFF740FE0998FFF74EFF019097
:102D60002868FFF7D9FD009029680868DDE900129E
:102D7000FDF71FFEB8F1000F13D050492068FFF790
:102D80002BFE0998FFF739FF0190D8F80000FFF7F4
:102D9000C3FD0090D8F800100868DDE90012FDF7C7
:102DA00008FE8EB145493068FFF716FE0998FFF717
:102DB00024FF01903068FFF7AFFD0090316808688C
:102DC000DDE90012FDF7F5FD1FFA89F0ADF81800F6
:102DD0000020ADF81A00CDF81CA0ADF8200006A91F
:102DE0000998FEF732FB9CB147F002070020ADF8CE
:102DF0000C00A088ADF80E000120ADF810000020F6
:102E0000ADF81200ADF8140003A90998FEF7F4FE1E
:102E10009DB147F004070420ADF80C00A088ADF880
:102E20000E000120ADF810000020ADF81200ADF842
:102E3000140003A90998FEF7DFFEB8F1000F13D0C4
:102E400047F008070820ADF80C00A088ADF80E0088
:102E50000120ADF810000020ADF81200ADF814000C
:102E600003A90998FEF7C8FE56B347F010070C20D7
:102E7000ADF80C00A088ADF80E000120ADF81000F0
:102E80000020ADF812001CE00000014000040040EA
:102E900000080040000C00400010004000140040FA
:102EA000000401400040014000440140004801404E
:102EB00000180040001C00400020004001000200FB
:102EC00005E0ADF8140003A90998FEF795FE47F058
:102ED000010101220F48FEF759FF01210998FEF771
:102EE0003DFBBBF1FF0F12D01A98FF280FD00998B5
:102EF000FFF73CFE8DF808008DF809B01A988DF8A0
:102F00000A0001208DF80B0002A8FDF7D6FB0DB0DA
:102F1000BDE8F08F000C004000BF704700BFFE4AC4
:102F2000128802F04002002AF9D0C2B2FA4B9A800D
:102F300070470146F84A914201D1072021E0F74A43
:102F4000914201D107201CE0F54A914201D10720AE
:102F500017E0F44A914201D1082012E0F24A91426E
:102F600001D108200DE0F14A914201D1082008E08A
:102F7000EF4A914201D1082003E0EE4A914200D18C
:102F8000082070470246802927D1E34B9A4201D19D
:102F9000E9484BE0E14B9A4201D1E84846E0E04B7A
:102FA0009A4201D1E64841E0DE4B9A4201D1E54820
:102FB0003CE0DD4B9A4201D1E34837E0DB4B9A42DB
:102FC00001D1E24832E0DA4B9A4201D1E0482DE0EB
:102FD000D84B9A422AD1DF4828E0402926D1CE4B4F
:102FE0009A4201D1DC4821E0CC4B9A4201D1DB4826
:102FF0001CE0CB4B9A4201D1D94817E0C94B9A4209
:1030000001D1D84812E0C84B9A4201D1D6480DE010
:10301000C64B9A4201D1D54808E0C54B9A4201D12E
:10302000D34803E0C34B9A4200D1D24870472DE900
:10303000F04705460E4617469846D6F80090C9F365
:10304000090000BB4FEAA920A0F5801080380928AC
:1030500019D2DFE800F00507090B0D0F1113150059
:10306000012411E002240FE004240DE008240BE009
:10307000102409E0202407E0402405E0802403E038
:103080004FF4807400E000BF00BFD7F80090C9F390
:10309000090040BB4FEAA920A0F58010803809281C
:1030A00021D2DFE800F005080B0E1114171A1D00DD
:1030B00044F0010418E044F0020415E044F0040474
:1030C00012E044F008040FE044F010040CE044F077
:1030D000200409E044F0400406E044F0800403E0EA
:1030E00044F4807400E000BF00BFB8F1000F0FD0BF
:1030F00040212846FFF746FF82469F49DAF8000044
:10310000884202D944F4800401E044F4001400BF72
:1031100001212046FDF760FE8549681A8D4235D0B1
:103120000CDC96482844C0B1B0F5806F1AD0B0F5D9
:10313000006F1CD0B0F5406F32D11DE0B0F5806F4C
:1031400029D0B0F5184F03D0B0F51C4F28D118E0A6
:1031500001211020FDF79AFE23E001214804FDF72C
:1031600084FE1EE001218804FDF77FFE19E00121A5
:10317000C804FDF77AFE14E001210805FDF775FE8D
:103180000FE001212020FDF781FE0AE001218807E0
:10319000FDF76BFE05E00121C807FDF766FE00E0C4
:1031A00000BF00BFBDE8F087014600205E4BCA1A91
:1031B000994219D009DC714A0A447AB1B2F5806F9C
:1031C0000ED0B2F5006F13D10CE0B2F5404F03D032
:1031D000B2F5444F0CD109E025200AE0262008E092
:1031E000272006E0342004E0352002E0472000E0FC
:1031F00000BF00BF70472DE9F04190B005460E4674
:1032000017469846002005900C900D900E9009905E
:103210004FF48060079000200A90281D0290002043
:103220000F90089006904FF400300B9080212846B4
:10323000FFF7A8FE044660680190402004900396C2
:1032400001A92068FFF772F9012210212068FFF719
:1032500034FACDF8148040212846FFF793FE044647
:103260006068019000200490039701A92068FFF78F
:103270005DF901212068FFF793F910B0BDE8F081F6
:103280002DE9F04F89B007460D4614461E46DDE98C
:1032900014ABDDE912890123224629463846FFF79F
:1032A000C6FE02208DF81C0003208DF81D000020B2
:1032B0008DF81E0001208DF81F006068069006A999
:1032C0002068FDF7EBFA6868069006A92068FDF70C
:1032D000E5FA2046FFF720FB01903846FFF729FE6C
:1032E00000902068DDE90021FDF763FB2846FFF729
:1032F00013FB01902868DDE90021FDF75AFB0296D7
:103300000020ADF80C00ADF80E00ADF81000ADF8DF
:1033100014000C2034E00000001001400044004084
:1033200000480040004C00400050004000140140A4
:1033300000780040007C0040B8F60108C0F40108A5
:10334000F8F3010840F4010808F5010890F60108B7
:1033500078F3010848F30108A0F5010888F4010892
:1033600070F30108B8F3010840F3010860F50108A3
:1033700000F40108C8F401080064024000BCFFBF6B
:10338000ADF8120002A93846FEF76BFE5A465146C8
:103390003846169BFFF72FFF0122C0213846FEF763
:1033A00095FF3846FFF700FF8DF820008DF821804B
:1033B0008DF8229001208DF8230008A8FDF77DF9F3
:1033C000012240F224413846FEF789FF01213846A8
:1033D000FEF7CFFE09B0BDE8F08F70B504460D468C
:1033E00000265748006808B1012070BD00215448EC
:1033F000001FFFF7D5F80AE0701CC6B2C82E06DD24
:1034000001214F48001FFFF7CBF80220EDE74C48A1
:10341000001FFFF712F90028EED14FF03051484855
:10342000001FFFF736F9464808300460444805603D
:103430000121001FFFF7B4F80020D6E770B504465D
:103440000D4600263F48006808B1012070BD0021EC
:103450003C48001FFFF7A4F80AE0701CC6B2C82E53
:1034600006DD01213748001FFFF79AF80220EDE73B
:103470003448001FFFF7E1F80028EED13249314807
:10348000001FFFF706F92F48083004602D48A438C4
:10349000C0F8A45001212B48001FFFF781F800203D
:1034A000D4E70CE000BF294A128802F04002002A4B
:1034B000F9D00278254B9A80401C4A1ED1B20029CF
:1034C000F0DC00BF214A128802F04002002AF9D045
:1034D00070470DE000BF1E4A128802F04002002A29
:1034E000F9D002781A4B1B1D1A80401C4A1ED1B21B
:1034F0000029EFDC00BF164A128802F04002002AC1
:10350000F9D0704708E011F8012B828000BF0288D3
:1035100002F08002002AFAD00A78002AF3D170471C
:1035200010B5002309E011F8014B848000BF048826
:1035300004F08004002CFAD05B1C9342F3D310BD3E
:10354000BC640240A4600240000030200010014032
:10355000004400402DE9F04F89B0824688469146EC
:103560001C4612ADE0CD5046FFF78EFA84B14849B3
:103570002046FFF731FA5046FFF73FFB83462046CF
:10358000FFF7CAF900905A4620680099FDF711FA32
:1035900085B13F492846FFF71FFA5046FFF72DFB3C
:1035A00083462846FFF7B8F900905A4628680099E4
:1035B000FDF7FFF986B136493046FFF70DFA504660
:1035C000FFF71BFB83463046FFF7A6F900905A46EB
:1035D00030680099FDF7EDF987B12D493846FFF7BE
:1035E000FBF95046FFF709FB83463846FFF794F98D
:1035F00000905A4638680099FDF7DBF9ADF818904D
:103600000020ADF81A00CDF81C80ADF8200006A906
:103610005046FDF71AFF6020ADF804000120ADF818
:1036200006000020ADF810003CB101A95046FDF79E
:10363000A1FF08215046FEF72AF93DB101A95046E5
:10364000FDF7D1FF08215046FEF72AF93EB101A946
:103650005046FEF715F808215046FEF72EF93FB107
:1036600001A95046FEF772F808215046FEF72EF9E0
:1036700001215046FDF754FF01215046FDF76EFF32
:1036800001215046FEF75BFB09B0BDE8F08F00005A
:10369000010002002DE9F05F04460D4616461F4664
:1036A000DDE90CABDDE90A89207865F300002070C4
:1036B000207866F3420020706760C4F80880C4F880
:1036C0000C90C4F810A0C4F814B00E98A0610F9824
:1036D000E0612046E1698847109820621198606295
:1036E0001298A062BDE8F09F10B50446207800F063
:1036F000010020B1E749A068FFF76EF904E04FF040
:103700000111A068FFF768F94FF001116068FFF739
:1037100063F90120E16808602169086010BD016853
:1037200009680279530003229A40914302681160AC
:10373000016809680279530000229A401143026827
:1037400011607047016809680279530003229A40AA
:1037500091430268116001680968027953000122EF
:103760009A401143026811607047002107E000226F
:1037700001E0531CDAB2062AFBDB4B1C99B28142F2
:10378000F5DB704700B50120FFF7EFFF00BD10B576
:103790000446207800F0010010B9616AA0688847EB
:1037A000012021690860E1680860A06A8047002064
:1037B00021690860A06A80470020E168086010BDA8
:1037C00010B50446207800F0010010B9616AA068C5
:1037D00088470020E168086021690860A06A804786
:1037E0000120E1680860A06A804701202169086023
:1037F00010BD70B5044600250120216908602078BD
:1038000000F0010010B9216AA0688847A06A8047CB
:103810000120E1680860A06A804709E0681C85B261
:10382000B5F57A7F04DD2046FFF7CAFF012070BDA1
:10383000A06900680028F1D1E168086000BFF6E7E0
:1038400010B504460020E1680860207800F001000F
:1038500010B9616AA0688847002021690860A06AE1
:1038600080470120E1680860A06A80470020E16885
:103870000860A06A804710BD10B504460020E168CA
:103880000860207800F0010010B9616AA0688847DC
:10389000012021690860A06A80470120E168086072
:1038A000A06A80470020E1680860A06A804710BDD8
:1038B00070B504460D46207800F0010010B9616A29
:1038C000A06888470020E1680860002612E0E80947
:1038D000216908606806050EA06A80470120E1683A
:1038E0000860A06A80470020E1680860A06A8047FD
:1038F000701CC6B2082EEADB01202169086070BD89
:103900002DE9F04104460F460026207800F0010022
:1039100010B9216AA068884700250FE00020E168FF
:103920000860A06A80477006060EA069006808B1AA
:10393000701CC6B2A06A8047681CC5B2082DEDDBBA
:103940001FB12046FFF77CFF02E02046FFF794FFFF
:103950003046BDE8F08170B504460D4660690068E8
:1039600090B1A069006878B12046FFF710FF2946A2
:103970002046FFF79DFF2046FFF73BFF0646204607
:10398000FFF71EFF304670BD0120FCE72DE9F04136
:1039900006460F4614461D463046FFF7F8FE3946E8
:1039A0003046FFF785FF3046FFF723FF28B130464A
:1039B000FFF706FF0120BDE8F08121463046FFF702
:1039C00077FF3046FFF715FF20B13046FFF7F8FECE
:1039D0000120F0E729463046FFF76AFF3046FFF73F
:1039E00008FF20B13046FFF7EBFE0120E3E7304649
:1039F000FFF7E6FE0020DEE72DE9F04180460E46A7
:103A000017461C46069D4046FFF7C1FE314640461C
:103A1000FFF74EFF4046FFF7ECFE28B14046FFF7A8
:103A2000CFFE0120BDE8F08139464046FFF740FF58
:103A30004046FFF7DEFE20B14046FFF7C1FE012001
:103A4000F0E74046FFF7A3FE701CC1B24046FFF707
:103A50002FFF4046FFF7CDFE20B14046FFF7B0FEF6
:103A60000120DFE70FE0012D05D100214046FFF7DF
:103A700047FF207004E001214046FFF741FF20701E
:103A8000681EC5B2641C002DEDD14046FFF798FEBC
:103A90000020C7E70101010010B501218807FEF7EA
:103AA0008CF950B101218807FEF798F901218807A8
:103AB000FEF780F9002003F0B7FB10BD10B501211F
:103AC0004F48FEF77AF938B101214D48FEF786F9E3
:103AD00001214B48FEF76EF910BD10B50121494890
:103AE000FEF76BF938B101214648FEF777F901215D
:103AF0004448FEF75FF910BD10B501214248FEF7BA
:103B00005CF9002849D001213F48FEF767F90121FF
:103B10003D48FEF74FF93D480068401C3B490860AE
:103B2000084600684FF47A7190FBF1F201FB120035
:103B300020B937480068401C35490860354800788E
:103B400020B135480088401C334908803348C0798B
:103B500000F0010020B131484089401C2F494881C4
:103B60002F48C07900F0010020B12D484089401C49
:103B70002B4948812B48C07900F0010020B1294829
:103B80004089401C27494881244803F034FB2448DD
:103B900003F031FB234803F02EFB10BD10B50121CB
:103BA0002148FEF70AF938B101211F48FEF716F93E
:103BB00001211D48FEF7FEF810BD10B501211B487C
:103BC000FEF7FBF838B101211848FEF707F901218B
:103BD0001648FEF7EFF810BD7047704710B5012189
:103BE0001348FEF7EAF838B101211148FEF7F6F85C
:103BF00001210F48FEF7DEF810BD70477047000046
:103C00000004004000080040001000403400002084
:103C100038000020810000208200002080AF0120B9
:103C200090AF0120A0AF01200014004000480140E7
:103C30000000014010B540F224411F48FEF78AFB06
:103C4000012838D11C4800881C4908801A488088FF
:103C5000088000211A48FEF7A3FC1948001D0068DF
:103C6000C0F580701549088016491548FEF711FD0A
:103C700000BF1348FEF7E1FC0028FAD14FF4807032
:103C80000F49091D086001210D48FEF789FC0B480A
:103C9000008860B10C48007848B1084802880B4998
:103CA0000B480AF0C3FB054800880A49086003482E
:103CB00000880949088010BD001001403E00002026
:103CC00040640240000030102E0000202802002036
:103CD00028050020300000202C00002010B5012015
:103CE000FEF7CAFD28B10120FEF7C2FD0120FEF754
:103CF000CEFD10BD10B50220FEF7BEFD28B102209A
:103D0000FEF7B6FD0220FEF7C2FD10BD10B504207F
:103D1000FEF7B2FD58B10420FEF7AAFD0420FEF71D
:103D2000B6FD24480068012801D12349087010BD60
:103D300010B50820FEF7A0FD60B10820FEF798FD41
:103D40000820FEF7A4FD1B48001D006810B90120E3
:103D50001949087010BD10B51020FEF78DFD60B137
:103D60001020FEF785FD1020FEF791FD1148083068
:103D7000006810B901201049087010BD10B58020EE
:103D8000FEF77AFD28B18020FEF772FD8020FEF755
:103D90007EFD10BD10B54FF40040FEF76DFD38B14B
:103DA0004FF40040FEF764FD4FF40040FEF76FFD56
:103DB00010BD0000080242428000002010B500241F
:103DC0000EE04FF40C71002003F06DF85C4941F8EF
:103DD0002400084650F8240000B903E0601CC4B277
:103DE000032CEEDB00BF4FF40A71002003F05BF8F8
:103DF000544908604FF40A71002003F054F8524906
:103E000008604FF40071002003F04DF84F4908603E
:103E1000032C0AD14B48006838B14B48006820B1E8
:103E20000846006808B1002010BD0120FCE70146EB
:103E3000412901DA08467047612903DBA1F120001E
:103E4000C0B2F8E70846F6E72DE9FC410546002731
:103E5000002405E0601CC4B2287800B902E06D1CA3
:103E6000FA2CF7DB00BFFA2C02D1FF20BDE8FC8161
:103E7000002408E06D1E28782E2802D16D1C2F46E4
:103E800003E0601CC4B2052CF4DB00BF3946684671
:103E90000AF0A8FA002407E01DF80400FFF7C7FFA6
:103EA0000DF80400601CC4B2042CF5DB00241DE0F6
:103EB000002616E0264800EB041050F82600007893
:103EC00000B910E0224901EB041151F826006946BF
:103ED0000AF018FB18B946EA0410C0B2C6E7701C15
:103EE000C6B2042EE6DB00BF601CC4B2072CDFDBC9
:103EF000FF20BBE72DE9FC4707460C46154600208E
:103F000000908046814601AA6946384601F09CFD32
:103F100006468EB901984069801E0199897800FB98
:103F200001F901988078009900FB01F84FEA5900E7
:103F300020604FEA580028603046BDE8FC8700004A
:103F400028060020400000204400002050000020EF
:103F5000E0F6010870B5044600251CB904F0B3FA78
:103F6000054601E0012500BF00BF0DB1012070BD75
:103F70000020FCE70146002070472DE9F04105468E
:103F80000E4617461C464FF0000814B90420BDE841
:103F9000F08195B9E2B23946304605F055FA8046CF
:103FA00007E004F090FAE2B23946304605F04CFAE8
:103FB0008046B8F1000FF4D102E04FF0010800BFD5
:103FC00000BFB8F1000F01D10020E0E70120DEE7DB
:103FD0002DE9F04105460E4617461C464FF00008F5
:103FE00014B90420BDE8F08195B9E2B239463046F3
:103FF00005F089FA804607E004F065FAE2B2394636
:10400000304605F080FA8046B8F1000FF4D102E0A6
:104010004FF0010800BF00BFB8F1000F01D1002030
:10402000E0E70120DEE72DE9F04706468946154620
:1040300046BBB9F1000F09D0B9F1010F13D0B9F1A6
:10404000020F05D0B9F1030F19D106E0002418E0E2
:104050004FF400702860002413E02548B0F85000A9
:10406000288000240DE022484FF400720023D0E99C
:10407000127138460AF031F82860002401E0042467
:1040800000BF22E0012E1FD1B9F1000F09D0B9F114
:10409000010F11D0B9F1020F05D0B9F1030F10D102
:1040A00006E000240FE04FF40070288000240AE0AE
:1040B00008202880002406E00E480088286000249C
:1040C00001E0042400BF00E001242046BDE8F087A1
:1040D0000020704710B504462146002002F0E3FEA0
:1040E00010BD10B504462146002002F0CCFE10BDE4
:1040F00018B201205400002070B503460C4603E0BE
:1041000014F8015B03F8015B151EA2F10102F7D15F
:1041100070BD30B5034601E003F8011B141EA2F187
:104120000102F9D130BDF0B503461C460D46002012
:1041300000BF161EA2F1010207D014F8017B15F88A
:1041400001CBA7EB0C06301EF3D0F0BD024600E019
:10415000521C107810B110788842F9D1107870474D
:1041600070B504462079F8B1E56A607801232A46E3
:1041700004F13001FFF72CFF08B1012070BD0020D1
:104180002071206A281AA16988420DD2E67809E0D8
:10419000A0690544607801232A4604F13001FFF745
:1041A00017FF761E022EF3D20020E7E770B5044613
:1041B0000D46E06AA84210D02046FFF7D1FF08B1B3
:1041C000012070BD607801232A4604F13001FFF719
:1041D000D4FE08B10120F4E7E5620020F1E770B5F4
:1041E00004462046FFF7BCFF0546002D59D1207834
:1041F00003284FD1607901284CD14202002104F1FB
:104200003000FFF786FF552184F82E12AA2184F88A
:104210002F12522084F830005221312001556121A3
:1042200032200155412133200155722184F81412A6
:1042300084F81512412184F81612612184F81712AE
:10424000217C84F81812208A010A84F81912206946
:10425000010C84F81A122069010E84F81B12217BCC
:1042600084F81C12A089010A84F81D12E068010C70
:1042700084F81E12E068010E84F81F12E069401CE9
:10428000E0626078012304F13001E26AFFF7A0FEEA
:1042900000206071607800221146FFF7C4FE00B173
:1042A0000125284670BD0246891E5069801E88423D
:1042B00001D8002070479378906A01FB0300F9E76A
:1042C0002DE9F04105460C46022C02D36869A04254
:1042D00002D80120BDE8F0812878012804D0022806
:1042E0002CD003285AD13DE0274607EB5707286A10
:1042F00000EB57212846FFF759FF00B150E0C7F304
:10430000080105F1300010F801807F1C286A00EBDD
:1043100057212846FFF74AFF00B141E0C7F30801E3
:1043200005F13000405C48EA002804F0010010B1BB
:104330004FEA1810CEE7C8F30B00CBE7286A00EB72
:1043400014212846FFF732FF00B129E040F2FF10A8
:1043500000EA440105F130000E183078717840EA27
:104360000120B7E7286A00EBD4112846FFF71EFFAB
:1043700000B115E040F2FF1000EA840105F13000C1
:104380000E18F0780006B17840EA0140717840EAF2
:1043900001203178084320F070409BE7012099E725
:1043A00000BF4FF0FF3095E72DE9F04705460E4678
:1043B0001746022E02D36869B04202D84FF00208B5
:1043C0008AE02878012804D0022841D003287DD132
:1043D00054E0B14609EB5909286A00EB59212846F7
:1043E000FFF7E4FE8046B8F1000F00D071E0C9F39A
:1043F000080105F130000C1806F0010020B1F9B2F7
:10440000207861F31F1000E03846207009F101099F
:1044100001202871286A00EB59212846FFF7C6FEC3
:104420008046B8F1000F00D053E0C9F3080105F150
:1044300030000C1806F0010010B1C7F3071005E0BA
:10444000207800F0F000C7F303210843207040E01B
:10445000286A00EB16212846FFF7A8FE8046B8F12F
:10446000000F00D035E040F2FF1000EA460105F1F0
:1044700030000C182770380A60702AE0286A00EBB8
:10448000D6112846FFF792FE8046B8F1000F00D003
:104490001FE040F2FF1000EA860105F130000C1821
:1044A000E0780006A17840EA0140617840EA012006
:1044B0002178084300F0704007432770380A607085
:1044C000380CA070380EE07003E0FFE74FF00208F0
:1044D00000BF00BF012028714046BDE8F0872DE9EC
:1044E000F04104460E46022E02D36069B04201D864
:1044F000022727E0002721E031462046FFF7E0FEB3
:10450000054605B91DE0012D01D1022719E0681CFF
:1045100008B9012715E0002231462046FFF744FF85
:10452000074607B10DE02069401C30B12069401CEE
:104530002061607940F0010060712E466069B042F0
:10454000DAD800BF3846BDE8F0812DE9F0470446CF
:104550008946B9F1000F06D1E76817B16069B84222
:1045600015D8012713E049462046FFF7A9FE064665
:10457000022E02D20120BDE8F087701C08B9304637
:10458000F9E76069B04201D93046F4E74F463D464D
:1045900000BF6D1C6069A84204D80225BD4201D944
:1045A0000020E8E729462046FFF78AFE064606B9BE
:1045B00009E0701C08B1012E01D13046DBE7BD4295
:1045C000E7D10020D7E700BF6FF0704229462046B0
:1045D000FFF7EAFE8046B8F1000F08D1B9F1000FED
:1045E00005D02A4649462046FFF7DEFE8046B8F150
:1045F000000F0BD1E5602069401C78B12069401E96
:104600002061607940F00100607107E0B8F1010FAE
:1046100002D14FF0FF3000E0012005462846AAE70E
:1046200070B503460D46586A021D680A1E68B678C2
:10463000B0FBF6F400BF02CA09B9002070BD8C427D
:1046400000D202E0641A121DF5E700BF1068204492
:10465000F4E72DE9F04104460E46E680A568012DF9
:1046600003D020684069A84202D80220BDE8F0814A
:104670002DB920680078032801D12068456A45B922
:1046800020680089B04201D80220EFE72068476A1D
:104690001EE0206880784FEA001812E02946206862
:1046A000FFF70EFE0546681C08B90120DEE7022D63
:1046B00003D320684069A84201D80220D6E7A6EBC0
:1046C00008064645EAD229462068FFF7ECFD074672
:1046D000E5600FB90220C9E707EB161020612068DA
:1046E000303006F00F0100EB411060610020BDE7A3
:1046F0002DE9F04104468846E088461CB0B208B176
:10470000206910B90420BDE8F08106F00F000028F0
:104710006CD12069401C2061E06828B920680089BC
:10472000B04263D80420EEE720688078401E00EA9B
:10473000161000285AD1E1682068FFF7C1FD054630
:10474000012D01D80220DEE7681C08B90120DAE754
:1047500020684069A84243D8B8F1000F01D1042075
:10476000D1E7E1682068FFF7F0FE05460DB90720A4
:10477000C9E7012D01D10220C5E7681C08B9012055
:10478000C1E72068FFF7ECFC08B10120BBE7216816
:1047900001F130004FF400720021FFF7BAFC294606
:1047A0002068FFF780FD2168C86200270EE0012025
:1047B000216808712068FFF7D3FC08B10120A2E747
:1047C0002068C06A401C2168C8627F1C206880780D
:1047D000B842ECD82068C06AC01B2168C86200BF1C
:1047E000E56029462068FFF75EFD2061E6802068CD
:1047F000303006F00F0100EB41106061002082E7CD
:104800002DE9F04104460E4600212046FFF721FF26
:104810000546EDB9002700BF21692068FFF7C6FCF7
:10482000054605B113E060690078E52802D06069AB
:10483000007820B9781C0746B04201D107E0002774
:1048400001212046FFF754FF0546002DE4D000BFAC
:10485000042D00D107252846BDE8F08110B5024699
:104860008C7ECB7E44EA03201378032B05D10C7D8C
:104870004B7D44EA032340EA034010BD81760B0AD6
:10488000C3760A0C02750B0E437570472DE9F04193
:10489000044600212046FFF7DCFE054615B12846F8
:1048A000BDE8F08100BF21692068FFF77FFC054665
:1048B00005B116E0666937780FB9042511E0F07A82
:1048C00000F0080030B90B223046A169FFF72BFC3D
:1048D00000B906E000212046FFF70AFF0546002D3B
:1048E000E1D000BF2846DBE72DE9F04704468946C2
:1048F000042526E021692068FFF758FC054605B12C
:1049000022E0D4F8148098F800600EB904251BE06A
:1049100098F80B0000F03F07E52E0BD02E2E09D0A3
:104920000F2F07D0082F01D1012000E000204845BB
:1049300000D109E000212046FFF7DAFE054605B167
:1049400002E020690028D5D100BF0DB10020206110
:104950002846BDE8F08770B5044601212046FFF7E0
:104960004FFF054695B921692068FFF71FFC0546F2
:1049700065B9202200216069FFF7CBFB0B22D4E947
:104980000501FFF7B9FB012021680871284670BDB9
:1049900070B50446E1882046FFF75BFE054685B901
:1049A00021692068FFF702FC054655B92022002145
:1049B0006069FFF7AEFBE52061690870012021689E
:1049C0000871284670BDF0B5044601F1090220695E
:1049D00000282DD06069002310E01E465B1C855D19
:1049E000202D00D10AE0052D00D1E525092B02D1AB
:1049F0002E2602F8016B02F8015B00BF0B2BECD3F3
:104A0000C67A0E72C67F3706867F47EA0647467F1C
:104A100047EA0626077F3E430E60077E467E47EA4A
:104A200006268E80877DC67D47EA0626CE8000BF9B
:104A300000201070F0BD2DE9F35F8A46DAF80070AF
:104A400000E07F1C38782F28FBD038785C28F8D01D
:104A5000009886690B2220213046FFF75AFB00257B
:104A6000A946AB464FF0080800BF58460BF1010BB2
:104A70003C5C202C03DD2F2C01D05C2C00D134E0D9
:104A80002E2C01D0C1450ED3B8F1080F01D12E2C28
:104A900002D00620BDE8FC9F4FF008094FF00B083C
:104AA000A806050EE1E7802C03DB45F00305062090
:104AB000F0E72146FCA0FFF749FB08B10620E9E733
:104AC000412C04DB5A2C02DC45F0020508E0612C85
:104AD00006DB7A2C04DC45F00105A4F12000C4B209
:104AE000484609F101093454BFE700BF07EB0B004A
:104AF000CAF80000202C01DC042000E0002004465D
:104B0000B9F1000F01D10620C4E73078E52801D1C2
:104B100005203070B8F1080F01D1A806050E05F088
:104B20000300012801D144F0100405F00C00042812
:104B300001D144F00804F4720020ABE72DE9F34101
:104B40000446019800782F2803D0019800785C284B
:104B500002D10198401C01900020A06001980078CB
:104B6000202807D200212046FFF773FD05460020CC
:104B7000606128E000BF01A92046FFF75CFF054601
:104B800005B11FE02046FFF781FE0546A069C67A01
:104B90003DB1042D04D100BF06F0040000B9052585
:104BA00010E006F0040000B10CE06769F87A00F04C
:104BB000100008B9052505E039462068FFF74EFECC
:104BC000A060D8E700BF2846BDE8FC8170B502466A
:104BD0004FF0FF301568E5B1116800E0491C0D7811
:104BE000212D02D30D783A2DF8D10D783A2D0FD121
:104BF000146814F8015BA5F130030A2B07D28C422C
:104C000005D1032B03D218464D1C2946156070BDF3
:104C1000002000BFFBE770B504460D460020207160
:104C2000401EE06229462046FFF7C0FA08B1032083
:104C300070BD94F82E1294F82F0241EA00204AF633
:104C40005521884201D00220F2E794F8690001065C
:104C500094F8680041EA004194F8670041EA0020B6
:104C600094F86610084320F07F409349884201D1B0
:104C70000020DDE794F88500010694F8840041EAFD
:104C8000004194F8830041EA002094F88210084320
:104C900020F07F408849884201D10020C8E70120E8
:104CA000C6E72DE9F74F88B0002108980160099800
:104CB000FFF78CFF07900798002803DA0B200BB052
:104CC000BDE8F08F7D49079851F820400CB90C20C1
:104CD000F5E708980460207878B16078FFF74AF922
:104CE000804608F0010040B90A9820B108F004009D
:104CF00008B10A20E3E70020E1E7002020700798D0
:104D000060706078FFF726F9804608F0010008B16E
:104D10000320D4E70A9820B108F0040008B10A2063
:104D2000CDE7002739462046FFF775FF0546012DE0
:104D300001D06DBB2CE0002614E004F5F77101EB07
:104D40000610017951B1C17A0A06817A42EA01421C
:104D5000417A42EA0121027A114300E000214DF834
:104D60002610761C042EE8D3002606B1761E00BF5E
:104D70005DF8267027B139462046FFF74CFF00E06A
:104D8000022005461DB1701C06460428F0D300BF62
:104D9000032D01D1012092E70DB10D208FE73B20BB
:104DA000015D94F83C0041EA0020B0F5007F01D09D
:104DB0000D2084E74620015D94F8470041EA002970
:104DC000B9F1000F0ED194F85700010694F856007F
:104DD00041EA004194F8550041EA002094F854104B
:104DE00040EA0109C4F818904020005DE070E078C6
:104DF000012804D0E078022801D00D205FE7E07898
:104E000009FB00F93D20005DA070A07818B1A078E2
:104E1000411E084008B10D2051E74120015D94F882
:104E2000420041EA00202081207A00F00F0008B102
:104E30000D2044E74320015D94F8440041EA002B33
:104E4000BBF1000F0ED194F85300010694F8520004
:104E500041EA004194F8510041EA002094F85010D2
:104E600040EA010B3E20015D94F83F0041EA00203A
:104E70000490049808B90D2021E70498484421893A
:104E800000EB111006900698834501D20D2016E71D
:104E90000698ABEB0000A178B0FBF1FABAF1000F75
:104EA0000ED10D200BE70000222A2B2C3A3B3C3D73
:104EB0003E3F5B5D7C7F0000464154007006002051
:104EC000012540F6F670824500D302254FF6F670B4
:104ED000824500D303250AF102006061E76104986E
:104EE0003844206206983844A062032D16D12089E8
:104EF00008B10D20E3E694F85F00010694F85E0027
:104F000041EA004194F85D0041EA002094F85C1009
:104F10000843606260698000059014E0208908B948
:104F20000D20CCE6206A48446062022D02D16069FF
:104F3000400007E0207D00F00100616901EB4101C4
:104F400000EB51000590A169059800F2FF10B1EB4C
:104F5000502F01D20D20B2E64FF0FF302061E0600B
:104F600080206071032D5AD194F8601094F861008C
:104F700041EA0020012852D1791C2046FFF716F99A
:104F8000E8BB0020607194F82E1294F82F0241EAD9
:104F900000204AF65521884241D13320005D0106A8
:104FA0003220005D41EA00413120005D41EA0020ED
:104FB00094F830100843FE49884230D194F8170223
:104FC000010694F8160241EA004194F8150241EAFC
:104FD000002094F814120843F64988421FD194F82F
:104FE0001B02010694F81A0241EA004194F81902E2
:104FF00041EA002094F818120843206100E00EE016
:1050000094F81F02010694F81E0241EA004194F848
:105010001D0241EA002094F81C120843E06025704C
:10502000E5480088401C80B2E3490880E080002009
:1050300045E670B505462C464CB1206838B120686D
:10504000007820B12068C088A188884201D009205A
:1050500070BD21684878FEF78DFF00F0010008B1AF
:105060000320F5E70020F3E7F7B582B01646039872
:10507000019001A8FFF7AAFD0546002D02DA0B20DA
:1050800005B0F0BDCD4850F825400CB1002020708F
:10509000029810B1002002990870C849029841F89E
:1050A0002500029808B1012E01D00020E8E7002277
:1050B00003A902A8FFF7F5FD07463846E0E72DE90A
:1050C000F7438AB0054616461DB909200DB0BDE864
:1050D000F0830020286006F01F0626F001020BA9CD
:1050E00003A8FFF7DEFD0746002F7DD1CDF824D0C1
:1050F00003A80B99FFF722FD0746089C0FB904B9D6
:10510000062706F01C00002851D04FB1042F03D110
:1051100003A8FFF720FC074646F00806089C09E0B4
:10512000E07A00F0110008B1072703E006F0040060
:1051300000B10827002F39D106F00800002835D02B
:10514000FEF7C6FF804684F80E804FEA1821E1730F
:105150004FEA184121744FEA186161740020E0722F
:10516000207700216177A177E17721460398FFF747
:1051700075FB814600212046FFF780FB0120039943
:105180000871B9F1000F11D00398D0F82C8049466E
:105190000398FFF7A4F9074647B9A9F1010003995D
:1051A000C86041460398FFF701F807460EE06FB963
:1051B000E07A00F0100008B1042707E006F00200D2
:1051C00020B1E07A00F0010000B1072747B906F0EE
:1051D000080008B146F020060398C06AE8612C6216
:1051E00017B9AE71002000E019E0E871214603987C
:1051F000FFF734FB2861E07F0106A07F41EA004110
:10520000607F41EA0020217F0843E8600020A86019
:10521000A8616862039828602868C088A88038461A
:1052200054E72DE9FF4F83B0044615469A46DDF852
:1052300010B00020CAF800002046FFF7FAFE0290E6
:10524000029818B1029807B0BDE8F08FE07908B174
:10525000E079F8E7A07900F0010008B90720F2E74B
:10526000D4E90210401A00900098854200D9009DB0
:10527000B3E02089C0F30800002876D12068807848
:10528000401EA16800EA512000F0FF09B9F1000FAB
:105290001FD1A06810B9206901900CE0606A28B1A4
:1052A0002046A168FFF7BCF9019004E0616920681D
:1052B000FFF706F801900198022802D20220E0715F
:1052C000C1E70198401C10B90120E071BBE70198CB
:1052D000606161692068FEF7E6FF064616B90220A4
:1052E000E071B0E74E444FEA5528B8F1000F29D0DD
:1052F00009EB080021688978884203D92068807802
:10530000A0EB090821684878434632465946FEF723
:1053100034FE10B10120E07195E7A07900F0400063
:1053200068B1A069801B404509D2A169891B0BEBBC
:1053300041204FF4007204F12801FEF7DDFE4FEA30
:10534000482740E0A069B04220D0A07900F040009A
:1053500080B121684878012304F12801A269FEF791
:1053600037FE18B10120E0716DE710E0A07920F060
:105370004000A071216848780123324604F12801D9
:10538000FEF7FBFD10B10120E0715CE7A66120890A
:10539000C0F30800C0F50077AF4200D92F4620893E
:1053A000C0F3080204F1280011183A46584607E0F5
:1053B0005252614172724161560000207006002015
:1053C000FEF79AFE00BFBB44A0683844A060DAF83C
:1053D00000003844CAF80000ED1B002D7FF449AFEF
:1053E000002030E72DE9FF4F83B0044615469B4669
:1053F000049801900020CBF800002046FFF719FE2A
:105400000290029818B1029807B0BDE8F08FE079D9
:1054100008B1E079F8E7A07900F0020008B90720A8
:10542000F2E7A0682844A168884200D20025BEE0C7
:105430002089C0F3080000287DD120688078401EB4
:10544000A16800EA512000F0FF0ABAF1000F26D14E
:10545000A06838B9276997B900212068FFF775F867
:1054600007460CE0606A28B12046A168FFF7D8F82B
:10547000074604E061692068FFF767F8074607B947
:1054800098E0012F02D10220E071BDE7781C10B92D
:105490000120E071B8E76761206900B92761A07950
:1054A00000F0400078B121684878012304F1280118
:1054B000A269FEF78DFD10B10120E071A4E7A0798B
:1054C00020F04000A07161692068FEF7ECFE0646FE
:1054D00016B90220E07197E756444FEA5529B9F111
:1054E000000F2CD00AEB090021688978884203D983
:1054F00020688078A0EB0A09216848784B4632463C
:105500000199FEF765FD10B10120E0717CE7A0690B
:10551000801B48450ED2A069801B019A02EB4021F6
:105520004FF4007204F12800FEF7E6FDA07920F0A8
:105530004000A07100E016E04FEA49282AE0A06987
:10554000B0420FD0D4E9020188420BD221684878DA
:105550000123324604F12801FEF70FFD10B10120AE
:10556000E07151E7A6612089C0F30800C0F500781A
:10557000A84500D9A8462189C1F3080204F12801F1
:10558000501842460199FEF7B7FDA07940F040005F
:10559000A07100BF019840440190A0684044A06001
:1055A000DBF800004044CBF80000A5EB0805002D17
:1055B0007FF43EAF00BFD4E90201884201D9A06860
:1055C000E060A07940F02000A07100201CE72DE9E8
:1055D000F04104462046FFF72CFD0746002F4CD132
:1055E000A07900F02000002847D0A07900F040000A
:1055F00078B121684878012304F12801A269FEF7F7
:10560000E7FC10B10120BDE8F081A07920F0400056
:10561000A071E1692068FEF7C9FD0746002F2CD173
:10562000256AE87A40F02000E872207B2877A0897C
:10563000010A6977E068010CA977E068010EE97753
:1056400028462169FFF71AF9FEF742FD0646AE75B6
:10565000310AE975310C2976310E69760020A8747B
:105660000021E974A07920F02000A07101202168B8
:1056700008712068FEF7B3FD07463846C3E770B5EA
:1056800005462846FFF7A3FF044644B92846FFF71E
:10569000D0FC04460CB900202860204670BD20468E
:1056A000FCE72DE9FE4F04460D462046FFF7C1FCFE
:1056B0000290029810B10298BDE8FE8FE07908B11F
:1056C000E079F9E7606A002871D0681C00283BD1B6
:1056D000D4F8248058F804AB4FF0020926693EB391
:1056E00000BF00964FF0000B09F1020900BF0196C0
:1056F0000BF1010B31462068FEF7E2FD0646012E54
:1057000002D80220E071D7E7701C10B90120E071C7
:10571000D2E70198401C8642E9D0D14504D848F828
:1057200004BB009848F8040B20684069B042D8D800
:10573000606AC0F80090D14503D80020C8F8000086
:1057400047E01120029044E0E068A84200D2E568FA
:10575000A560002D3DD0691E2046FEF761FF606107
:1057600061692068FEF79FFD074617B90220E071C6
:10577000A2E720688078401E691E00EA5120074495
:105780002089C0F3080020B3A069B84221D0A079D5
:1057900000F0400080B121684878012304F128011D
:1057A000A269FEF715FC18B10120E07184E711E051
:1057B000A07920F04000A0712168487801233A4682
:1057C00004F12801FEF7D9FB10B10120E07173E765
:1057D000A761ABE0E068A84204D2A07900F0020023
:1057E00000B9E568D4F808904FF00008C4F80880C4
:1057F000002D67D0206880784702B9F1000F11D0E2
:10580000681EB0FBF7F1A9F10100B0FBF7F081428F
:1058100008D3A9F10100791E8843A060A0682D1A61
:10582000666912E026697EB900212068FEF78DFEC8
:105830000646012E02D10220E0713DE7701C10B92E
:105840000120E07138E726616661C6B323E0A079E4
:1058500000F0020038B131462068FEF776FE0646B9
:1058600036B93D4619E031462068FEF729FD064667
:10587000701C10B90120E0711EE7012E03D92068C9
:105880004069B04202D80220E07115E76661A06865
:105890003844A060ED1BBD42D9D800BFA0682844A1
:1058A000A060C5F3080050B131462068FEF7FBFC4C
:1058B0008046B8F1000F03D10220E071FCE601E060
:1058C00008EB55282089C0F3080020B3A0694045A3
:1058D00021D0A07900F0400078B1216848780123F8
:1058E00004F12801A269FEF773FB10B10120E071F9
:1058F000E2E6A07920F04000A071216848780123F9
:10590000424604F12801FEF738FB10B10120E07196
:10591000D2E6C4F81880D4E90201884205D9A0680B
:10592000E060A07940F02000A07100BF0298C3E6BB
:1059300033B585B0044614B9092007B030BD002244
:1059400006A904A8FFF7ADF905461DBB0498206021
:1059500001A8A06120460699FFF7F0F80546B5B901
:10596000606958B16069C07A00F0100028B16169BF
:105970000498FEF773FFA06000E005253DB9049888
:10598000C088A08000212046FEF763FE0546042D56
:1059900000D105250DB1002020602846CDE770B567
:1059A00004462046FFF745FB05460DB90020206060
:1059B000284670BDFEB505460E462846FFF739FB62
:1059C00004460CBB2EB900212846FEF742FE0446D1
:1059D0001AE0C5F818D000212846FEF785FF0446D6
:1059E000042C02D10020286100246CB931462846DD
:1059F000FEF7E9FF00212846FEF77AFE0446042C54
:105A000002D10020286100242046FEBD33B58BB0B2
:105A10000D4600220BA904A8FFF743F9044684B9F8
:105A200001A80A9004A80B99FFF788F8044644B926
:105A3000099828B12DB1294604A8FEF7C4FF00E05B
:105A4000062420460DB030BD2DE9F74F82B08A46BE
:105A5000002202A90498FFF724F901900498046831
:105A6000019800286DD1D4E90410801E814203D82A
:105A70002069CAF8000064E094F800B00026BBF189
:105A8000010F1CD1022700BF39462046FEF718FC43
:105A9000804608F1010010B9012001900EE0B8F134
:105AA000010F02D10220019008E0B8F1000F00D1EF
:105AB000761C781C074661698842E5D33AE067693D
:105AC000206A00904FF00009002500BFB9F1000FD7
:105AD0000ED10098421C014620460092FEF766FB5C
